:040000000CEF00F011
:10000800FACF01F0FBCF02F0E9CF03F051ED14F085
:04001800E8EF15F008
:1010000000010000000A00000064000000E8030086
:101010000010270000A086010040420F0080969833
:101020000000E1F50500CA9A3B00803FCDCC3DD7DA
:10103000233C12833AB7D138C62737388635C0D615
:1010400033CC2B32708930E7DB2EE53C1E42A20DFB
:1010500000803F00204100C842007A44401C4650B6
:10106000C34724744997184BBCBE4C6B6E4E031596
:101070005079AD60F34971466C616D652053656EC2
:10108000736F7220566F6C74616765203D20256612
:101090002046200D0A000000500E0001836F000E54
:1010A0000001846F51D3250E00019619D8B405D0E4
:1010B00000019651A2EC16F047D3000E0001866F96
:1010C000000E856F06D04FD30001868514D03CD327
:1010D00012D04EC0F6FF4FC0F7FF4E4A4F2A08000D
:1010E000F5CF96F000019651000AD8B43CD3660AB9
:1010F000D8B4EAD729D3070E00018615D8B414D383
:10110000000E0001886F060E876F83C0D9FF84C070
:10111000DAFFDECF93F0DECF94F0DDCF95F0030E53
:1011200000018327000E8423000195AF12D093C0E5
:101130000FF094C010F095C011F03EEC16F00FC007
:1011400093F010C094F011C095F0030E00018513C8
:1011500000D0000E00018E6F000E8D6F00019351C4
:101160000001941100019511D8B48DD0820E536EF8
:10117000FF0E546E93C055F094C056F095C057F0D2
:1011800096C058F0100E05D0D890583257325632CB
:101190005532E82EF9D75550532400018D6F000EBB
:1011A000542000018E6F00018D07D8A08E078DC0DE
:1011B0001DF08EC01EF0000E206E030E1F6E17EC89
:1011C00016F01DC08DF01EC08EF08DC015F08EC0C3
:1011D00016F0000E186E0A0E176E34EC13F015C0E0
:1011E0008DF016C08EF000018EAF05D000018D0786
:1011F000D8A08E0700D000018D510008B4EC0BF090
:1012000032C08FF033C090F034C091F08FC023F023
:1012100090C024F091C025F093C026F094C027F030
:1012200095C028F071EC11F023C08FF024C090F02D
:1012300025C091F08FC00FF090C010F091C011F058
:10124000000E126E800E136E3F0E146E7FEC13F0C4
:10125000D8B005D000018D07D8A08E0714D08FC05C
:101260000FF090C010F091C011F0000E126E200E21
:10127000136E410E146E7FEC13F0D8A004D0000161
:101280008D4B8E2B00D0000188BF08D00001885103
:101290001EE10D0E0001875DD8B019D093C03CF05F
:1012A00094C03DF095C03EF000018751A4EC0DF0D4
:1012B00032C03FF033C040F034C041F0C6EC0EF015
:1012C0003CC093F03DC094F03EC095F000D00001CA
:1012D0008EBF08D000018E5128E10A0E00018D5DFD
:1012E000D8B023D000019351000194110001951151
:1012F000D8B477D093C039F094C03AF095C03BF0A1
:10130000EDEC11F039503A103B103C10D8A469D0E4
:1013100000018EBF66D000018E5107E1020E000170
:101320008D5DD8B002D05DD000D08FC00FF090C0DE
:1013300010F091C011F0700E126E890E136E400EF7
:10134000146E7FEC13F0D8B003D00001F70E02D07A
:101350000001F80E8D27FF0E8E2300D000018D5165
:10136000B4EC0BF032C08FF033C090F034C091F089
:1013700017D093C00FF094C010F095C011F08FC03B
:1013800012F090C013F091C014F0ECEC10F00FC00C
:1013900089F010C08AF011C08BF012C08CF017D009
:1013A00093C00FF094C010F095C011F08FC012F0F0
:1013B00090C013F091C014F064EC10F00FC089F0ED
:1013C00010C08AF011C08BF012C08CF000D0000E5B
:1013D0000001936F000E0001946F000E0001956FE5
:1013E00034D093C039F094C03AF095C03BF0EDECA6
:1013F00011F039C089F03AC08AF03BC08BF03CC094
:101400008CF093C048F094C049F095C04AF089C070
:1014100017F08AC018F08BC019F08CC01AF0FAECE3
:1014200014F017C04BF018C04CF019C04DF0A8ECE8
:1014300015F048C093F049C094F04AC095F0000EF2
:1014400000018E6F000E8D6F00D0010E0001966FAF
:101450000A0E00019619D8B422D001D020D0000184
:101460009651040D010EF324F66E100EF420F76E63
:101470000900F5500001895D0900F55000018A5905
:101480000900F55000018B590900F55000018C59F5
:10149000D8A005D001D003D00001962BD9D7030ED8
:1014A00000018515536E000E00018615546E5350D1
:1014B0005410D8B44BD02D0EA2EC16F047D089C0F2
:1014C0000FF08AC010F08BC011F08CC012F0000138
:1014D0009651040D010EF324F66E100EF420F76EF3
:1014E0000900F5CF13F00900F5CF14F00900F5CF8E
:1014F00015F00A00F5CF16F0CAEC13F00FC08FF00C
:1015000010C090F011C091F012C092F08FC00FF097
:1015100090C010F091C011F092C012F00A0E136E3C
:10152000000E146E000E156E000E166E8AEC14F08E
:101530000FC08FF010C090F011C091F012C092F067
:1015400000018F51300FA2EC16F000D00001960779
:1015500000019629D8B40AD0B2D708D0300EA2EC38
:1015600016F000018D07D8A08E0700D000018EBFB5
:1015700007D000018E51F2E100018D05D8B0EED701
:10158000000188BF0CD00001885105E1090E00015F
:10159000875DD8A004D0080E0001966F03D087C0E5
:1015A00096F000D0000196510001875F000E000107
:1015B00096BFFF0E0001885B000196510001D8B470
:1015C00004D02E0EA2EC16F000D000019651B4EC1F
:1015D0000BF032C080F033C081F034C082F093C091
:1015E00026F094C027F095C028F080C023F081C079
:1015F00024F082C025F071EC11F023C039F024C032
:101600003AF025C03BF0EDEC11F039C089F03AC05A
:101610008AF03BC08BF03CC08CF06ED089C00FF0DC
:101620008AC010F08BC011F08CC012F000019651EE
:10163000040D010EF324F66E100EF420F76E09006F
:10164000F5CF13F00900F5CF14F00900F5CF15F030
:101650000A00F5CF16F0CAEC13F00FC08FF010C0DF
:1016600090F011C091F012C092F08FC00FF090C0B6
:1016700010F091C011F092C012F00A0E136E000E1D
:10168000146E000E156E000E166E8AEC14F00FC06C
:101690008FF010C090F011C091F012C092F00001D4
:1016A0008F51300FA2EC16F089C00FF08AC010F0F5
:1016B0008BC011F08CC012F000019651040D010E88
:1016C000F324F66E100EF420F76E0900F5CF13F038
:1016D0000900F5CF14F00900F5CF15F00A00F5CF99
:1016E00016F08AEC14F00FC089F010C08AF011C017
:1016F0008BF012C08CF000D00001960700019629F3
:10170000D8B40AD08BD708D0300EA2EC16F0000166
:101710008707D8A0880700D00001875100018811F1
:10172000D8B412D0F1D710D0030E00018515536E36
:10173000000E00018615546E53505410D8B404D0D6
:101740002D0EA2EC16F000D04EC0F6FF4FC0F7FFF2
:101750004E4A4F2A0800F5CF96F000019651D8B4B2
:1017600002D0A1D400D01200386E38AEEFD0386C61
:101770003850800A120FD8A08DD0000E206E030EB4
:101780001F6E000E186E0A0E176E000E126E640E9B
:10179000116E38500F6E106A0FBE100610EC14F068
:1017A0000FC015F010C016F034EC13F0090E15241C
:1017B0001D6E000E16201E6E17EC16F0290E1D244D
:1017C000F66E100E1E20F76E0900F5CF26F0090008
:1017D000F5CF27F00A00F5CF28F0000E186E640E42
:1017E000176E3850156E166A15BE160634EC13F0D7
:1017F000120E15241D6E000E16201E6E000E206E99
:10180000030E1F6E17EC16F0290E1D24F66E100E37
:101810001E20F76E0900F5CF23F00900F5CF24F064
:101820000A00F5CF25F071EC11F023C035F024C08B
:1018300036F025C037F035C023F036C024F037C06D
:1018400025F0000E206E030E1F6E000E126E0A0EA3
:10185000116E38500F6E106A0FBE100610EC14F0A7
:101860000FC01DF010C01EF017EC16F0290E1D243D
:10187000F66E100E1E20F76E0900F5CF26F0090057
:10188000F5CF27F00A00F5CF28F071EC11F041D127
:101890005AD154D03850800A750FD8A04FD0000EBE
:1018A000186E0A0E176E3850156E166A15BE16069B
:1018B00034EC13F0090E15241D6E000E16201E6E5A
:1018C000000E206E030E1F6E17EC16F0290E1D245D
:1018D000F66E100E1E20F76E0900F5CF23F00900FA
:1018E000F5CF24F00A00F5CF25F0000E206E030E90
:1018F0001F6E000E126E0A0E116E38500F6E106AB7
:101900000FBE100610EC14F00FC01DF010C01EF03A
:1019100017EC16F0290E1D24F66E100E1E20F76E21
:101920000900F5CF26F00900F5CF27F00A00F5CF22
:1019300028F071EC11F0EDD006D100D03850030D35
:10194000290EF324F66E100EF2D0FDD03850800A26
:10195000120FD8A08DD0000E206E030E1F6E000E49
:10196000186E0A0E176E000E126E640E116E38504D
:101970000F6E106A0FBE100610EC14F00FC015F0B9
:1019800010C016F034EC13F0090E15241D6E000E75
:1019900016201E6E17EC16F0500E1D24F66E100E5B
:1019A0001E20F76E0900F5CF26F00900F5CF27F0CD
:1019B0000A00F5CF28F0000E186E640E176E38502E
:1019C000156E166A15BE160634EC13F0120E1524A9
:1019D0001D6E000E16201E6E000E206E030E1F6E72
:1019E00017EC16F0500E1D24F66E100E1E20F76E2A
:1019F0000900F5CF23F00900F5CF24F00A00F5CF58
:101A000025F071EC11F023C035F024C036F025C06C
:101A100037F035C023F036C024F037C025F0000E73
:101A2000206E030E1F6E000E126E0A0E116E3850DD
:101A30000F6E106A0FBE100610EC14F00FC01DF0F0
:101A400010C01EF017EC16F0500E1D24F66E100E8E
:101A50001E20F76E0900F5CF26F00900F5CF27F01C
:101A60000A00F5CF28F071EC11F053D06CD059D0AA
:101A70003850800A750FD8A054D0000E186E0A0E88
:101A8000176E3850156E166A15BE160634EC13F034
:101A9000090E15241D6E000E16201E6E000E206EFF
:101AA000030E1F6E17EC16F0500E1D24F66E100E6E
:101AB0001E20F76E0900F5CF23F00900F5CF24F0C2
:101AC0000A00F5CF25F0000E206E030E1F6E000EEB
:101AD000126E0A0E116E38500F6E106A0FBE10068D
:101AE00010EC14F00FC01DF010C01EF017EC16F033
:101AF000500E1D24F66E100E1E20F76E0900F5CF55
:101B000026F00900F5CF27F00A00F5CF28F071EC98
:101B100011F023C032F024C033F025C034F013D0CC
:101B200000D03850030D500EF324F66E100EF42042
:101B3000F76E0900F5CF32F00900F5CF33F00A0057
:101B4000F5CF34F000D012003B6E6D0E3B649BD09D
:101B5000000E206E030E1F6E000E186E0A0E176E1A
:101B6000000E126E640E116E3BC00FF0106A10EC86
:101B700014F00FC015F010C016F034EC13F0090E7D
:101B800015241D6E000E16201E6E17EC16F0290E81
:101B90001D24F66E100E1E20F76E0900F5CF26F0FC
:101BA0000900F5CF27F00A00F5CF28F0000E186ED7
:101BB000640E176E3BC015F0166A34EC13F0120E6B
:101BC00015241D6E000E16201E6E000E206E030ED4
:101BD0001F6E17EC16F0290E1D24F66E100E1E2037
:101BE000F76E0900F5CF23F00900F5CF24F00A00C5
:101BF000F5CF25F071EC11F023C038F024C039F096
:101C000025C03AF0000E206E030E1F6E000E126EFD
:101C10000A0E116E3BC00FF0106A10EC14F00FC0EA
:101C20001DF010C01EF017EC16F0290E1D24F66EE4
:101C3000100E1E20F76E0900F5CF26F00900F5CF33
:101C400027F00A00F5CF28F038C023F039C024F07F
:101C50003AC025F071EC11F023C035F024C036F005
:101C600025C037F035C023F036C024F037C025F04A
:101C7000000E266E000E276E3F0E286E71EC11F0DE
:101C80007DD083D062D00A0E3B645FD0000E206E00
:101C9000030E1F6E000E126E0A0E116E3BC00FF087
:101CA000106A10EC14F00FC01DF010C01EF017ECFD
:101CB00016F0290E1D24F66E100E1E20F76E090078
:101CC000F5CF26F00900F5CF27F00A00F5CF28F070
:101CD000000E186E0A0E176E3BC015F0166A34EC33
:101CE00013F0090E15241D6E000E16201E6E000E38
:101CF000206E030E1F6E17EC16F0290E1D24F66ED3
:101D0000100E1E20F76E0900F5CF23F00900F5CF65
:101D100024F00A00F5CF25F071EC11F023C038F063
:101D200024C039F025C03AF038C023F039C024F07F
:101D30003AC025F0000E266E000E276E3F0E286E6C
:101D400071EC11F01BD021D000D03B50030D290EB7
:101D5000F324F66E100EF420F76E0900F5CF23F091
:101D60000900F5CF24F00A00F5CF25F0000E266E0D
:101D7000000E276E3F0E286E71EC11F023C032F07A
:101D800024C033F025C034F000D012003EC042F031
:101D9000436A446A3D34423601E343804250476E11
:101DA00041C042F0436A446A4034423601E3438012
:101DB0004250466E4750D8B40BD04650475CD8B01E
:101DC0000ED0475000084624426E180E426407D0D9
:101DD0003FC03CF040C03DF041C03EF0B8D046505E
:101DE000D8B40BD04750465CD8B00ED0465000084F
:101DF0004724426E180E426407D03CC03CF03DC000
:101E00003DF03EC03EF0A3D0060E456E3EAE02D081
:101E1000458E00D041BE458C3D8EFF0E3C16FF0E18
:101E20003D16000E3E16408EFF0E3F16FF0E40166A
:101E3000000E41164650475CD8B01ED0D8903F36B1
:101E400040364136460647504618D8B40FD04506AE
:101E500045C042F0070E4216D8B408D0EFD706D0DE
:101E6000D8903E323D323C32472A00D04650471887
:101E7000D8B424D0F5D722D04750465CD8B01ED075
:101E8000D8903C363D363E36470647504618D8B4C3
:101E90000FD0450645C042F0070E4216D8B408D010
:101EA000EFD706D0D890413240323F32462A00D098
:101EB00046504718D8B402D0F5D700D045AE0CD064
:101EC000FF0E3C1AFF0E3D1AFF0E3E1A010E3C2675
:101ED000000E3D22000E3E2245AC0DD0FF0E3F1AF3
:101EE000FF0E401AFF0E411A010E3F26000E40223F
:101EF000000E412200D0000E456E3C503F263D5062
:101F000040223E50412241AE0FD0FF0E3F1AFF0E3D
:101F1000401AFF0E411A010E3F26000E4022000E0D
:101F20004122010E456E00D03FC00FF040C010F0BE
:101F300041C011F047C012F045C013F0D1EC12F0CF
:101F40000FC03CF010C03DF011C03EF000D01200B8
:101F5000700ED36EF19E7BEC16F0B9EC16F086ECA9
:101F600016F0B4EC16F0000E636E000E626E00D038
:101F7000000EA9EC16F02BEC16F00FC059F010C0B3
:101F80005AF0000E266E800E276E400E286E59C045
:101F900017F05AC018F0CAEC15F017C023F018C09B
:101FA00024F019C025F071EC11F023C032F024C0E8
:101FB00033F025C034F0000E356E7A0E366E440EC6
:101FC000376E60EC12F032C05FF033C060F034C0A6
:101FD00061F0808A82845FC00FF060C010F061C041
:101FE00011F0CD0E126E8C0E136E3F0E146E7FEC40
:101FF00013F0D8B008D0838E90EC16F0839E90EC4E
:1020000016F0808A02D0809A839E81B203D0624A01
:10201000632A00D081B404D06206D8A0630600D041
:1020200000019705D8A407D0000E0001976F00ECBF
:1020300016F0808A00D0635023E10A0E625CD8B0AB
:102040001FD062C00FF063C010F0000E126E0A0EB7
:10205000116E2AEC15F00F505B6E62C00FF063C07A
:1020600010F0000E126E0A0E116E82EC15F00F5079
:102070005C6E5B5058EC15F05C506FEC16F013D0B2
:10208000635004E10A0E625CD8A00DD090EC16F00B
:10209000090E5D6E090E5E6E5D5058EC15F05E50D7
:1020A0006FEC16F000D0770E4E6E100E4F6E5FC0C4
:1020B00050F060C051F061C052F04CEC08F050ECB0
:1020C00016F056D70CEF00F011C015F0166A176A1B
:1020D0001034153601E3168015501D6E1D50D8A41E
:1020E00002D05DD078D014C015F0166A176A133488
:1020F000153601E3168015501C6E1C50D8A402D072
:102100004ED069D0108EFF0E0F16FF0E1016000E67
:102110001116138EFF0E1216FF0E1316000E141654
:10212000000E186E000E196E000E1A6E000E1B6E59
:102130007F0E1D5E1C50980F1D5E180E1C6ED890F1
:10214000183619361A361B3612500F5C13501058B9
:1021500014501158D8A007D012500F5E1350105AC7
:102160001450115A1880D8900F36103611361C2E84
:10217000E6D700D01DAE10D01D50800A970FD8B002
:1021800003D00DD028D000D0D8901B321A3219328B
:1021900018321D3EF9D717D0170E1D6411D0000E4E
:1021A0000F6E000E106E000E116E000E126E13D028
:1021B00007D0D890183619361A361B361D0600D0AF
:1021C0001D50D8A4F6D718C00FF019C010F01AC0CF
:1021D00011F01BC012F01200113412341A6E1A5092
:1021E000D8A402D061D07CD014341534196E1950A3
:1021F000D8A402D059D074D0118EFF0E0F16FF0E46
:102200001016FF0E1116000E1216148EFF0E121667
:10221000FF0E1316FF0E1416000E1516000E156E87
:10222000000E166E000E176E000E186E7F0E1A5EF0
:102230001950A00F1A5E200E196E00D0D8901536D6
:1022400016361736183612500F5C135010581450AB
:10225000115815501258D8A00AD012500F5E1350C2
:10226000105A1450115A1550125A158000D0D89097
:102270000F36103611361236192EE0D700D01AAEAE
:1022800010D01A50800A9F0FD8B003D00DD028D09C
:1022900000D0D89018321732163215321A3EF9D7BC
:1022A00017D01F0E1A6411D0000E0F6E000E106EA4
:1022B000000E116E000E126E13D007D0D890153696
:1022C0001636173618361A0600D01A50D8A4F6D784
:1022D00015C00FF016C010F017C011F018C012F0A2
:1022E000120025C029F02A6A2B6A2434293601E31A
:1022F0002A8029502C6E2C50D8A402D00ED06CD03D
:1023000028C029F02A6A2B6A2734293601E32A805B
:102310002950316E3150D8A407D0000E236E000E24
:10232000246E000E256E58D031507B0F2C2625C010
:1023300031F02850311A800E3116248E278EFF0E70
:102340002616FF0E2716000E2816000E2D6E000E04
:102350002E6E000E2F6E070E306E00D023A007D019
:1023600026502D2627502E2228502F2200D0D890DC
:10237000253224322332D890263627362836302E7E
:10238000EDD700D0090E306E00D023A007D0265024
:102390002D2627502E2228502F2200D0D8902532CB
:1023A00024322332D8902F322E322D32302EEDD7D8
:1023B00000D02DC00FF02EC010F02FC011F02CC097
:1023C00012F031C013F0D1EC12F00FC023F010C0A6
:1023D00024F011C025F000D012003BC03DF03E6A51
:1023E0003F6A3A343D3601E33E803D50476E4750E8
:1023F000D8A402D039D063D0170E3D6E39C03EF05C
:102400003AC03FF03BC040F03D28416E04D0D89028
:1024100040323F323E32412EFAD73E50426E3A8E23
:10242000FF0E3916FF0E3A16000E3B163950436E5A
:102430003A50446E3B50456E466A8E0E475E47AE3C
:1024400010D04750800A8F0FD8B003D00DD037D0AE
:1024500000D0D8904632453244324332473EF9D715
:1024600019D0170E476411D0000E396E000E3A6E67
:10247000000E3B6E000E3C6E22D007D0D890433643
:10248000443645364636470600D04750D8B402D0C9
:10249000F5D700D04250D8B409D0461E451E441E80
:1024A000436C000E44224522462200D043C039F03E
:1024B00044C03AF045C03BF046C03CF000D01200AA
:1024C00034C038F0396A3A6A3334383601E3398037
:1024D00038503F6E3F50D8A402D00ED061D037C0E4
:1024E00038F0396A3A6A3634383601E33980385080
:1024F000406E4050D8A407D0000E326E000E336EEE
:10250000000E346E4DD0000E3C6E000E3D6E000E7F
:102510003E6E4050890F3F5E34C040F03750401A45
:10252000800E4016338EFF0E3216FF0E3316000E4D
:102530003416368EFF0E3516FF0E3616000E371681
:10254000180E3B6E00D0D8903C363D363E363550A6
:10255000325C3650335837503458D8A007D03550F5
:10256000325E3650335A3750345A3C80D890323627
:10257000333634363B2EE7D700D03CC00FF03DC099
:1025800010F03EC011F03FC012F040C013F0D1EC8B
:1025900012F00FC032F010C033F011C034F000D090
:1025A00012001250D8B405D00F5010101110D8A43A
:1025B0000ED0000E0F6E000E106E000E116E53D076
:1025C00006D0122AD890113210320F3200D0000EED
:1025D0000F14146E000E1014156EFE0E1114166EEC
:1025E000145015101610D8B40ED0EBD70CD0122AF8
:1025F000010E0F26000E1022000E1122D89011326B
:1026000010320F3200D0000E0F14146E000E101492
:10261000156EFF0E1114166E145015101610D8B446
:1026200008D0E5D706D01206D8900F3610361136EE
:1026300000D010BE04D0020E1260F5D700D012B048
:1026400002D0109E00D0D8901232125011121350A6
:10265000D8B402D0118E00D00FC00FF010C010F00F
:1026600011C011F000D01200000E1A6E18AE07D083
:10267000176C181ED8B0182A010E1A6E00D016AEAC
:1026800007D0156C161ED8B0162A010E1A1A00D0E3
:10269000000E1C6E000E1B6E17501810D8B421D0FF
:1026A000010E196E05D0D89017361836192A00D0A9
:1026B00018BE02D0F8D700D0D8901B361C36175061
:1026C000155C18501658D8A006D01750155E185033
:1026D000165A1B8000D0D89018321732192EECD71A
:1026E00000D01A50D8B405D01B6C1C1ED8B01C2AC0
:1026F00000D01BC015F01CC016F000D0120011AEA7
:1027000017D00FC015F010C016F011C017F0151E2D
:10271000161E171E152A000E16221722000E15244B
:102720000F6E000E1620106E800E1720116E00D056
:1027300014AE17D012C015F013C016F014C017F065
:10274000151E161E171E152A000E16221722000E21
:102750001524126E000E1620136E800E1720146EB4
:1027600000D0000E0F1A000E101A800E111A000E63
:10277000121A000E131A800E141A12500F5C135006
:10278000105814501158D8B002D0D89002D0D88028
:1027900000D01200000E176E000E186E000E196E9B
:1027A000000E1A6E1350141015101610D8B42FD036
:1027B000010E1B6E07D0D890133614361536163618
:1027C0001B2A00D016BE02D0F6D700D0D8901736FC
:1027D000183619361A3613500F5C1450105815500D
:1027E000115816501258D8A00AD013500F5E14502A
:1027F000105A1550115A1650125A178000D0D890FE
:1028000016321532143213321B2EE0D700D017C007
:102810000FF018C010F019C011F01AC012F0120019
:10282000000E146E10AE07D00F6C101ED8B0102A18
:10283000010E146E00D012AE05D0116C121ED8B06D
:10284000122A00D011501210D8B41DD0010E136EF0
:1028500005D0D89011361236132A00D012BE02D0FD
:10286000F8D700D011500F5C12501058D8A005D0E6
:1028700011500F5E1250105A00D0D89012321132FF
:10288000132EF0D700D01450D8B405D00F6C101E02
:10289000D8B0102A00D00FC00FF010C010F000D038
:1028A00012000600EACF04F0E1CF05F0E2CF06F017
:1028B000D9CF07F0DACF08F0F3CF09F0F4CF0AF060
:1028C000F6CF0BF0F7CF0CF0F8CF0DF0F5CF0EF000
:1028D000F2A203D0BEEC16F000D00EC0F5FF0DC082
:1028E000F8FF0CC0F7FF0BC0F6FF0AC0F4FF09C0E9
:1028F000F3FF08C0DAFF07C0D9FF06C0E2FF05C03A
:10290000E1FF04C0EAFF03C0E9FF02C0FBFF01C012
:10291000FAFF11001350141015101610D8B429D056
:10292000010E176E07D0D8901336143615361636AA
:10293000172A00D016BE02D0F6D700D013500F5C75
:10294000145010581550115816501258D8A009D0CC
:1029500013500F5E1450105A1550115A1650125A37
:1029600000D0D8901632153214321332172EE6D713
:1029700000D00FC00FF010C010F011C011F012C045
:1029800012F01200116E000EAC6E000EAB6E11A0B4
:1029900002D0AC8800D011A203D0AC8CAB8C00D09C
:1029A00011A402D0AC8E00D011A602D0AB8802D008
:1029B000AB8A00D011B8AC849E9811AA02D0AB8625
:1029C00000D011AC02D09D8A01D09D9A9E9A11AE82
:1029D00002D09D8801D09D980FC0AFFF1050B06EFF
:1029E000AC8AAB8E949C948EACB8ACBE02D0948C66
:1029F00000D012008E0E1F6E07D0D8901A321932F6
:102A0000183217321F2A00D0000E17141B6E000E4A
:102A100018141C6E000E19141D6EFF0E1A141E6E73
:102A20001B501C101D101E10D8A4E7D717C00FF0A4
:102A300018C010F019C011F01FC012F0000E136E74
:102A4000D1EC12F00FC017F010C018F011C019F03F
:102A500000D01200000E156E000E146E11501210F0
:102A6000D8B421D0010E136E05D0D890113612368D
:102A7000132A00D012BE02D0F8D700D0D890143656
:102A8000153611500F5C12501058D8A006D01150B6
:102A90000F5E1250105A148000D0D89012321132AA
:102AA000132EECD700D014C00FF015C010F0120098
:102AB000106E1050010D640EF324D96E000EF42038
:102AC000DA6EDF503F0B826E1050010D640EF3245E
:102AD000D96E000EF420DA6EDF500F6E400E0F1626
:102AE0000F50116E126A400E11181210D8A402D0A5
:102AF000010E05D011501210D8A403D0000E846E20
:102B000000D0120011501210D8B41DD0010E136E57
:102B100005D0D89011361236132A00D012BE02D03A
:102B2000F8D700D011500F5C12501058D8A005D023
:102B300011500F5E1250105A00D0D890123211323C
:102B4000132EF0D700D00FC00FF010C010F01200FD
:102B50004B504C104D10D8B407D0000E4B1A000E3D
:102B60004C1A800E4D1A00D048C03CF049C03DF0D0
:102B70004AC03EF04BC03FF04CC040F04DC041F069
:102B8000C6EC0EF03CC048F03DC049F03EC04AF0F3
:102B900000D01200000E1A6E18AE07D0176C181E67
:102BA000D8B0182A010E1A6E00D017C00FF018C046
:102BB00010F0116A8E0E126E1AC013F0D1EC12F0E2
:102BC0000FC017F010C018F011C019F000D012009B
:102BD0000001976B6E6A5E0EF66E2D0EF76E000E9C
:102BE000F86E00EE64F010EE0AF00900F5CFEEFF8B
:102BF000E550E150FAE1000EF86E0001A8EF0FF089
:102C0000010E08D000019705D8A406D0000E0001DF
:102C1000976F000E6E6E07D0838E90EC16F0839E39
:102C200090EC16F000D06E04D8B4ECD712001D5012
:102C30001F02F3CF21F0F4CF22F01D502002F350F9
:102C400022261E501F02F350222621C01DF022C052
:102C50001EF000D01200C28200D0C2B2FED7C45013
:102C6000126E116AC3501124136E000E1220146EDE
:102C700013C00FF014C010F000D012000F5010104D
:102C80001110D8B406D0000E0F1A000E101A800EC4
:102C9000111A0FC00FF010C010F011C011F0120087
:102CA000000E106E000E0F6E10BE08D0680E0F5C86
:102CB000420E1058D8B005D001D003D00F4A102AC8
:102CC000F3D71200030ED56EDB0ED66E0B0ED76E49
:102CD000F294D58E00D0F2A4FED7D59E12000F6ECE
:102CE0000F50010D640EF324D96E000EF420DA6E3D
:102CF000DF50836E1200010E926E070E936E000E6F
:102D0000946E000E956E000E966E1200000E106E00
:102D1000190E0F6E3C0EC2EC14F0600ED36E120052
:102D200099EC16F062EC16F0C3EC16F062EC16F0BB
:102D30001200F90ECB6E050ECA6E4A0EBB6E3C0E2B
:102D4000BA6E12000F6E00D0ACA2FED70FC0ADFF5E
:102D500012000F6E0F50040DF328C26E1200014FC7
:102D600012064C24200F0004F292F288F19CF28E9D
:102D700012001B0EC16EA90EC06E1200F292010E5F
:0E2D80000001976F1200000EBA6E81961200CD
:020000040020DA
:08000000FFFFFFFFFFFFFFFF00
:020000040030CA
:0E000000FF08191EFF8281FF0FC00FE00F40A6
:00000001FF
